{
  "_format": "hh-sol-artifact-1",
  "contractName": "WavePortal",
  "sourceName": "contracts/WavePortal.sol",
  "abi": [
    {
      "inputs": [
        {
          "internalType": "string",
          "name": "",
          "type": "string"
        }
      ],
      "name": "InvalidWave",
      "type": "error"
    },
    {
      "inputs": [],
      "name": "getTotalWaves",
      "outputs": [
        {
          "internalType": "uint256",
          "name": "",
          "type": "uint256"
        }
      ],
      "stateMutability": "view",
      "type": "function"
    },
    {
      "inputs": [
        {
          "internalType": "uint256",
          "name": "index",
          "type": "uint256"
        }
      ],
      "name": "getWave",
      "outputs": [
        {
          "internalType": "address",
          "name": "",
          "type": "address"
        },
        {
          "internalType": "uint256",
          "name": "",
          "type": "uint256"
        },
        {
          "internalType": "uint256",
          "name": "",
          "type": "uint256"
        }
      ],
      "stateMutability": "view",
      "type": "function"
    },
    {
      "inputs": [],
      "name": "wave",
      "outputs": [],
      "stateMutability": "payable",
      "type": "function"
    }
  ],
  "bytecode": "0x60806040526000805534801561001457600080fd5b506106b2806100246000396000f3fe6080604052600436106100345760003560e01c80636fe15b44146100395780639a2cdc0814610043578063df215f301461006e575b600080fd5b6100416100ad565b005b34801561004f57600080fd5b506100586101c0565b6040516100659190610500565b60405180910390f35b34801561007a57600080fd5b50610095600480360381019061009091906103d6565b6101c9565b6040516100a493929190610479565b60405180910390f35b60016000808282546100bf9190610537565b92505081905550600160405180606001604052803373ffffffffffffffffffffffffffffffffffffffff16815260200134815260200142815250908060018154018082558091505060019003906000526020600020906003020160009091909190915060008201518160000160006101000a81548173ffffffffffffffffffffffffffffffffffffffff021916908373ffffffffffffffffffffffffffffffffffffffff160217905550602082015181600101556040820151816002015550506101be6040518060400160405280600c81526020017f2573206861732077617665640000000000000000000000000000000000000000815250336102fc565b565b60008054905090565b60008060008054841015806101de5750600084105b1561021e576040517f5f30af64000000000000000000000000000000000000000000000000000000008152600401610215906104e0565b60405180910390fd5b60006001858154811061025a577f4e487b7100000000000000000000000000000000000000000000000000000000600052603260045260246000fd5b90600052602060002090600302016040518060600160405290816000820160009054906101000a900473ffffffffffffffffffffffffffffffffffffffff1673ffffffffffffffffffffffffffffffffffffffff1673ffffffffffffffffffffffffffffffffffffffff168152602001600182015481526020016002820154815250509050806000015181602001518260400151935093509350509193909250565b61039482826040516024016103129291906104b0565b6040516020818303038152906040527f319af333000000000000000000000000000000000000000000000000000000007bffffffffffffffffffffffffffffffffffffffffffffffffffffffff19166020820180517bffffffffffffffffffffffffffffffffffffffffffffffffffffffff8381831617835250505050610398565b5050565b60008151905060006a636f6e736f6c652e6c6f679050602083016000808483855afa5050505050565b6000813590506103d081610665565b92915050565b6000602082840312156103e857600080fd5b60006103f6848285016103c1565b91505092915050565b6104088161058d565b82525050565b60006104198261051b565b6104238185610526565b93506104338185602086016105c9565b61043c8161062b565b840191505092915050565b6000610454600d83610526565b915061045f8261063c565b602082019050919050565b610473816105bf565b82525050565b600060608201905061048e60008301866103ff565b61049b602083018561046a565b6104a8604083018461046a565b949350505050565b600060408201905081810360008301526104ca818561040e565b90506104d960208301846103ff565b9392505050565b600060208201905081810360008301526104f981610447565b9050919050565b6000602082019050610515600083018461046a565b92915050565b600081519050919050565b600082825260208201905092915050565b6000610542826105bf565b915061054d836105bf565b9250827fffffffffffffffffffffffffffffffffffffffffffffffffffffffffffffffff03821115610582576105816105fc565b5b828201905092915050565b60006105988261059f565b9050919050565b600073ffffffffffffffffffffffffffffffffffffffff82169050919050565b6000819050919050565b60005b838110156105e75780820151818401526020810190506105cc565b838111156105f6576000848401525b50505050565b7f4e487b7100000000000000000000000000000000000000000000000000000000600052601160045260246000fd5b6000601f19601f8301169050919050565b7f496e76616c696420696e64657800000000000000000000000000000000000000600082015250565b61066e816105bf565b811461067957600080fd5b5056fea2646970667358221220d48e005b177ef96f0383674976023216d6bece1524f28a942059ad5bd0b53ea964736f6c63430008040033",
  "linkReferences": {},
  "deployedLinkReferences": {}
}