{
  "_format": "hh-sol-artifact-1",
  "contractName": "WavePortal",
  "sourceName": "contracts/WavePortal.sol",
  "abi": [
    {
      "inputs": [],
      "stateMutability": "payable",
      "type": "constructor"
    },
    {
      "inputs": [
        {
          "internalType": "string",
          "name": "",
          "type": "string"
        }
      ],
      "name": "InvalidWave",
      "type": "error"
    },
    {
      "anonymous": false,
      "inputs": [
        {
          "indexed": true,
          "internalType": "address",
          "name": "sender",
          "type": "address"
        },
        {
          "indexed": false,
          "internalType": "uint256",
          "name": "timestamp",
          "type": "uint256"
        },
        {
          "indexed": false,
          "internalType": "bool",
          "name": "awarded",
          "type": "bool"
        }
      ],
      "name": "NewWave",
      "type": "event"
    },
    {
      "inputs": [],
      "name": "getAllWaves",
      "outputs": [
        {
          "components": [
            {
              "internalType": "address",
              "name": "owner",
              "type": "address"
            },
            {
              "internalType": "uint256",
              "name": "timestamp",
              "type": "uint256"
            },
            {
              "internalType": "bool",
              "name": "awarded",
              "type": "bool"
            }
          ],
          "internalType": "struct WavePortal.Wave[]",
          "name": "",
          "type": "tuple[]"
        }
      ],
      "stateMutability": "view",
      "type": "function"
    },
    {
      "inputs": [],
      "name": "getTotalWaves",
      "outputs": [
        {
          "internalType": "uint256",
          "name": "",
          "type": "uint256"
        }
      ],
      "stateMutability": "view",
      "type": "function"
    },
    {
      "inputs": [
        {
          "internalType": "address",
          "name": "",
          "type": "address"
        }
      ],
      "name": "lastWavedAt",
      "outputs": [
        {
          "internalType": "uint256",
          "name": "",
          "type": "uint256"
        }
      ],
      "stateMutability": "view",
      "type": "function"
    },
    {
      "inputs": [],
      "name": "wave",
      "outputs": [],
      "stateMutability": "payable",
      "type": "function"
    }
  ],
  "bytecode": "0x60806040526000600155620000546040518060400160405280601681526020017f496e697469616c697a65642057617665506f7274616c000000000000000000008152506200007c60201b620005a31760201c565b60644244620000649190620001c9565b62000070919062000266565b6000819055506200030d565b6200011c8160405160240162000093919062000189565b6040516020818303038152906040527f41304fac000000000000000000000000000000000000000000000000000000007bffffffffffffffffffffffffffffffffffffffffffffffffffffffff19166020820180517bffffffffffffffffffffffffffffffffffffffffffffffffffffffff83818316178352505050506200011f60201b60201c565b50565b60008151905060006a636f6e736f6c652e6c6f679050602083016000808483855afa5050505050565b60006200015582620001ad565b620001618185620001b8565b93506200017381856020860162000230565b6200017e81620002fc565b840191505092915050565b60006020820190508181036000830152620001a5818462000148565b905092915050565b600081519050919050565b600082825260208201905092915050565b6000620001d68262000226565b9150620001e38362000226565b9250827fffffffffffffffffffffffffffffffffffffffffffffffffffffffffffffffff038211156200021b576200021a6200029e565b5b828201905092915050565b6000819050919050565b60005b838110156200025057808201518184015260208101905062000233565b8381111562000260576000848401525b50505050565b6000620002738262000226565b9150620002808362000226565b925082620002935762000292620002cd565b5b828206905092915050565b7f4e487b7100000000000000000000000000000000000000000000000000000000600052601160045260246000fd5b7f4e487b7100000000000000000000000000000000000000000000000000000000600052601260045260246000fd5b6000601f19601f8301169050919050565b610d05806200031d6000396000f3fe60806040526004361061003f5760003560e01c80636fe15b44146100445780639a2cdc081461004e578063a42a466314610079578063bd43a908146100b6575b600080fd5b61004c6100e1565b005b34801561005a57600080fd5b506100636104a7565b60405161007091906109ff565b60405180910390f35b34801561008557600080fd5b506100a0600480360381019061009b9190610716565b6104b1565b6040516100ad91906109ff565b60405180910390f35b3480156100c257600080fd5b506100cb6104c9565b6040516100d8919061092b565b60405180910390f35b42610384600360003373ffffffffffffffffffffffffffffffffffffffff1673ffffffffffffffffffffffffffffffffffffffff1681526020019081526020016000205461012f9190610aa3565b1061016f576040517f08c379a0000000000000000000000000000000000000000000000000000000008152600401610166906109df565b60405180910390fd5b6101ae6040518060400160405280600c81526020017f25732068617320776176656400000000000000000000000000000000000000008152503361063c565b42600360003373ffffffffffffffffffffffffffffffffffffffff1673ffffffffffffffffffffffffffffffffffffffff1681526020019081526020016000208190555060018060008282546102049190610aa3565b9250508190555060006064424461021b9190610aa3565b6000546102289190610aa3565b6102329190610b74565b6000819055506019600054101561038357600190506000655af3107a4000905047811115610295576040517f08c379a000000000000000000000000000000000000000000000000000000000815260040161028c906109bf565b60405180910390fd5b60003373ffffffffffffffffffffffffffffffffffffffff16826040516102bb90610916565b60006040518083038185875af1925050503d80600081146102f8576040519150601f19603f3d011682016040523d82523d6000602084013e6102fd565b606091505b5050905080610341576040517f08c379a00000000000000000000000000000000000000000000000000000000081526004016103389061099f565b60405180910390fd5b6103806040518060400160405280601581526020017f257320686173206265656e2072657761726465642100000000000000000000008152503361063c565b50505b600260405180606001604052803373ffffffffffffffffffffffffffffffffffffffff168152602001428152602001831515815250908060018154018082558091505060019003906000526020600020906003020160009091909190915060008201518160000160006101000a81548173ffffffffffffffffffffffffffffffffffffffff021916908373ffffffffffffffffffffffffffffffffffffffff1602179055506020820151816001015560408201518160020160006101000a81548160ff02191690831515021790555050503373ffffffffffffffffffffffffffffffffffffffff167f671379add458c43bbaf28f533ff7772335643e160ea1e1946d29534ce0130e4c428360405161049c929190610a1a565b60405180910390a250565b6000600154905090565b60036020528060005260406000206000915090505481565b60606002805480602002602001604051908101604052809291908181526020016000905b8282101561059a57838290600052602060002090600302016040518060600160405290816000820160009054906101000a900473ffffffffffffffffffffffffffffffffffffffff1673ffffffffffffffffffffffffffffffffffffffff1673ffffffffffffffffffffffffffffffffffffffff168152602001600182015481526020016002820160009054906101000a900460ff161515151581525050815260200190600101906104ed565b50505050905090565b610639816040516024016105b7919061094d565b6040516020818303038152906040527f41304fac000000000000000000000000000000000000000000000000000000007bffffffffffffffffffffffffffffffffffffffffffffffffffffffff19166020820180517bffffffffffffffffffffffffffffffffffffffffffffffffffffffff83818316178352505050506106d8565b50565b6106d4828260405160240161065292919061096f565b6040516020818303038152906040527f319af333000000000000000000000000000000000000000000000000000000007bffffffffffffffffffffffffffffffffffffffffffffffffffffffff19166020820180517bffffffffffffffffffffffffffffffffffffffffffffffffffffffff83818316178352505050506106d8565b5050565b60008151905060006a636f6e736f6c652e6c6f679050602083016000808483855afa5050505050565b60008135905061071081610cb8565b92915050565b60006020828403121561072857600080fd5b600061073684828501610701565b91505092915050565b600061074b83836108b6565b60608301905092915050565b61076081610af9565b82525050565b61076f81610af9565b82525050565b600061078082610a53565b61078a8185610a76565b935061079583610a43565b8060005b838110156107c65781516107ad888261073f565b97506107b883610a69565b925050600181019050610799565b5085935050505092915050565b6107dc81610b0b565b82525050565b6107eb81610b0b565b82525050565b60006107fc82610a5e565b6108068185610a92565b9350610816818560208601610b41565b61081f81610c03565b840191505092915050565b6000610837601883610a92565b915061084282610c14565b602082019050919050565b600061085a602a83610a92565b915061086582610c3d565b604082019050919050565b600061087d600083610a87565b915061088882610c8c565b600082019050919050565b60006108a0601983610a92565b91506108ab82610c8f565b602082019050919050565b6060820160008201516108cc6000850182610757565b5060208201516108df60208501826108f8565b5060408201516108f260408501826107d3565b50505050565b61090181610b37565b82525050565b61091081610b37565b82525050565b600061092182610870565b9150819050919050565b600060208201905081810360008301526109458184610775565b905092915050565b6000602082019050818103600083015261096781846107f1565b905092915050565b6000604082019050818103600083015261098981856107f1565b90506109986020830184610766565b9392505050565b600060208201905081810360008301526109b88161082a565b9050919050565b600060208201905081810360008301526109d88161084d565b9050919050565b600060208201905081810360008301526109f881610893565b9050919050565b6000602082019050610a146000830184610907565b92915050565b6000604082019050610a2f6000830185610907565b610a3c60208301846107e2565b9392505050565b6000819050602082019050919050565b600081519050919050565b600081519050919050565b6000602082019050919050565b600082825260208201905092915050565b600081905092915050565b600082825260208201905092915050565b6000610aae82610b37565b9150610ab983610b37565b9250827fffffffffffffffffffffffffffffffffffffffffffffffffffffffffffffffff03821115610aee57610aed610ba5565b5b828201905092915050565b6000610b0482610b17565b9050919050565b60008115159050919050565b600073ffffffffffffffffffffffffffffffffffffffff82169050919050565b6000819050919050565b60005b83811015610b5f578082015181840152602081019050610b44565b83811115610b6e576000848401525b50505050565b6000610b7f82610b37565b9150610b8a83610b37565b925082610b9a57610b99610bd4565b5b828206905092915050565b7f4e487b7100000000000000000000000000000000000000000000000000000000600052601160045260246000fd5b7f4e487b7100000000000000000000000000000000000000000000000000000000600052601260045260246000fd5b6000601f19601f8301169050919050565b7f4661696c656420746f207472616e73666572206d6f6e65790000000000000000600082015250565b7f547279696e6720746f207769746864726177206265796f6e6420636f6e74726160008201527f63742062616c616e636500000000000000000000000000000000000000000000602082015250565b50565b7f436f6f6c646f776e3a2057616974203135206d696e7574657300000000000000600082015250565b610cc181610af9565b8114610ccc57600080fd5b5056fea26469706673582212208941b1b40f866c1b5dec9eb7d692fafe34b08ea3388e2c99ffc27480ed6ffeec64736f6c63430008040033",
  "linkReferences": {},
  "deployedLinkReferences": {}
}